{
  "_format": "hh-sol-artifact-1",
  "contractName": "HealthLink",
  "sourceName": "contracts/HealthLink.sol",
  "abi": [
    {
      "anonymous": false,
      "inputs": [
        {
          "indexed": true,
          "internalType": "address",
          "name": "patient",
          "type": "address"
        },
        {
          "indexed": true,
          "internalType": "address",
          "name": "attendant",
          "type": "address"
        }
      ],
      "name": "AccessGranted",
      "type": "event"
    },
    {
      "anonymous": false,
      "inputs": [
        {
          "indexed": true,
          "internalType": "address",
          "name": "patient",
          "type": "address"
        },
        {
          "indexed": true,
          "internalType": "address",
          "name": "attendant",
          "type": "address"
        }
      ],
      "name": "AccessRevoked",
      "type": "event"
    },
    {
      "anonymous": false,
      "inputs": [
        {
          "indexed": true,
          "internalType": "address",
          "name": "patient",
          "type": "address"
        },
        {
          "indexed": false,
          "internalType": "string",
          "name": "ipfsHash",
          "type": "string"
        }
      ],
      "name": "RecordAdded",
      "type": "event"
    },
    {
      "inputs": [
        {
          "internalType": "address",
          "name": "patient",
          "type": "address"
        },
        {
          "internalType": "string",
          "name": "ipfsHash",
          "type": "string"
        },
        {
          "internalType": "string",
          "name": "recordType",
          "type": "string"
        }
      ],
      "name": "addRecord",
      "outputs": [],
      "stateMutability": "nonpayable",
      "type": "function"
    },
    {
      "inputs": [],
      "name": "getMyRecords",
      "outputs": [
        {
          "components": [
            {
              "internalType": "string",
              "name": "ipfsHash",
              "type": "string"
            },
            {
              "internalType": "string",
              "name": "recordType",
              "type": "string"
            },
            {
              "internalType": "uint256",
              "name": "timestamp",
              "type": "uint256"
            },
            {
              "internalType": "address",
              "name": "addedBy",
              "type": "address"
            }
          ],
          "internalType": "struct HealthLink.Record[]",
          "name": "",
          "type": "tuple[]"
        }
      ],
      "stateMutability": "view",
      "type": "function"
    },
    {
      "inputs": [
        {
          "internalType": "address",
          "name": "patient",
          "type": "address"
        }
      ],
      "name": "getRecords",
      "outputs": [
        {
          "components": [
            {
              "internalType": "string",
              "name": "ipfsHash",
              "type": "string"
            },
            {
              "internalType": "string",
              "name": "recordType",
              "type": "string"
            },
            {
              "internalType": "uint256",
              "name": "timestamp",
              "type": "uint256"
            },
            {
              "internalType": "address",
              "name": "addedBy",
              "type": "address"
            }
          ],
          "internalType": "struct HealthLink.Record[]",
          "name": "",
          "type": "tuple[]"
        }
      ],
      "stateMutability": "view",
      "type": "function"
    },
    {
      "inputs": [
        {
          "internalType": "address",
          "name": "attendant",
          "type": "address"
        }
      ],
      "name": "grantAccess",
      "outputs": [],
      "stateMutability": "nonpayable",
      "type": "function"
    },
    {
      "inputs": [
        {
          "internalType": "address",
          "name": "patient",
          "type": "address"
        },
        {
          "internalType": "address",
          "name": "attendant",
          "type": "address"
        }
      ],
      "name": "hasAccess",
      "outputs": [
        {
          "internalType": "bool",
          "name": "",
          "type": "bool"
        }
      ],
      "stateMutability": "view",
      "type": "function"
    },
    {
      "inputs": [
        {
          "internalType": "address",
          "name": "attendant",
          "type": "address"
        }
      ],
      "name": "revokeAccess",
      "outputs": [],
      "stateMutability": "nonpayable",
      "type": "function"
    }
  ],
  "bytecode": "0x608060405234801561001057600080fd5b506113ad806100206000396000f3fe608060405234801561001057600080fd5b50600436106100625760003560e01c80630ae5e739146100675780631709ef071461008357806385e68531146100b3578063a0076e84146100cf578063d47b41d5146100ff578063e76637ce1461011b575b600080fd5b610081600480360381019061007c9190610bea565b610139565b005b61009d60048036038101906100989190610c17565b61022a565b6040516100aa9190610c72565b60405180910390f35b6100cd60048036038101906100c89190610bea565b6102be565b005b6100e960048036038101906100e49190610bea565b6103b0565b6040516100f69190610e71565b60405180910390f35b61011960048036038101906101149190610ef8565b61069c565b005b610123610963565b6040516101309190610e71565b60405180910390f35b60018060003373ffffffffffffffffffffffffffffffffffffffff1673ffffffffffffffffffffffffffffffffffffffff16815260200190815260200160002060008373ffffffffffffffffffffffffffffffffffffffff1673ffffffffffffffffffffffffffffffffffffffff16815260200190815260200160002060006101000a81548160ff0219169083151502179055508073ffffffffffffffffffffffffffffffffffffffff163373ffffffffffffffffffffffffffffffffffffffff167f9f520b3bfc56d06f7065d10b4683b3f57ac8895d5026cd176dee95ce1454cb8d60405160405180910390a350565b6000600160008473ffffffffffffffffffffffffffffffffffffffff1673ffffffffffffffffffffffffffffffffffffffff16815260200190815260200160002060008373ffffffffffffffffffffffffffffffffffffffff1673ffffffffffffffffffffffffffffffffffffffff16815260200190815260200160002060009054906101000a900460ff16905092915050565b6000600160003373ffffffffffffffffffffffffffffffffffffffff1673ffffffffffffffffffffffffffffffffffffffff16815260200190815260200160002060008373ffffffffffffffffffffffffffffffffffffffff1673ffffffffffffffffffffffffffffffffffffffff16815260200190815260200160002060006101000a81548160ff0219169083151502179055508073ffffffffffffffffffffffffffffffffffffffff163373ffffffffffffffffffffffffffffffffffffffff167f825c8be24eb0df19500f63e86c29e7d0d951e73056b889b891d85e40938d9b6e60405160405180910390a350565b606081600160008273ffffffffffffffffffffffffffffffffffffffff1673ffffffffffffffffffffffffffffffffffffffff16815260200190815260200160002060003373ffffffffffffffffffffffffffffffffffffffff1673ffffffffffffffffffffffffffffffffffffffff16815260200190815260200160002060009054906101000a900460ff1661047c576040517f08c379a000000000000000000000000000000000000000000000000000000000815260040161047390610fea565b60405180910390fd5b6000808473ffffffffffffffffffffffffffffffffffffffff1673ffffffffffffffffffffffffffffffffffffffff168152602001908152602001600020805480602002602001604051908101604052809291908181526020016000905b82821015610690578382906000526020600020906004020160405180608001604052908160008201805461050d90611039565b80601f016020809104026020016040519081016040528092919081815260200182805461053990611039565b80156105865780601f1061055b57610100808354040283529160200191610586565b820191906000526020600020905b81548152906001019060200180831161056957829003601f168201915b5050505050815260200160018201805461059f90611039565b80601f01602080910402602001604051908101604052809291908181526020018280546105cb90611039565b80156106185780601f106105ed57610100808354040283529160200191610618565b820191906000526020600020905b8154815290600101906020018083116105fb57829003601f168201915b50505050508152602001600282015481526020016003820160009054906101000a900473ffffffffffffffffffffffffffffffffffffffff1673ffffffffffffffffffffffffffffffffffffffff1673ffffffffffffffffffffffffffffffffffffffff1681525050815260200190600101906104da565b50505050915050919050565b84600160008273ffffffffffffffffffffffffffffffffffffffff1673ffffffffffffffffffffffffffffffffffffffff16815260200190815260200160002060003373ffffffffffffffffffffffffffffffffffffffff1673ffffffffffffffffffffffffffffffffffffffff16815260200190815260200160002060009054906101000a900460ff16610766576040517f08c379a000000000000000000000000000000000000000000000000000000000815260040161075d90610fea565b60405180910390fd5b6000808773ffffffffffffffffffffffffffffffffffffffff1673ffffffffffffffffffffffffffffffffffffffff168152602001908152602001600020604051806080016040528087878080601f016020809104026020016040519081016040528093929190818152602001838380828437600081840152601f19601f82011690508083019250505050505050815260200185858080601f016020809104026020016040519081016040528093929190818152602001838380828437600081840152601f19601f8201169050808301925050505050505081526020014281526020013373ffffffffffffffffffffffffffffffffffffffff16815250908060018154018082558091505060019003906000526020600020906004020160009091909190915060008201518160000190816108a19190611245565b5060208201518160010190816108b79190611245565b506040820151816002015560608201518160030160006101000a81548173ffffffffffffffffffffffffffffffffffffffff021916908373ffffffffffffffffffffffffffffffffffffffff16021790555050508573ffffffffffffffffffffffffffffffffffffffff167f44626cfec8a165f72396cc5e247c6b96279f8c205a8d07c390df7aa5806205fa8686604051610953929190611353565b60405180910390a2505050505050565b60606000803373ffffffffffffffffffffffffffffffffffffffff1673ffffffffffffffffffffffffffffffffffffffff168152602001908152602001600020805480602002602001604051908101604052809291908181526020016000905b82821015610b7957838290600052602060002090600402016040518060800160405290816000820180546109f690611039565b80601f0160208091040260200160405190810160405280929190818152602001828054610a2290611039565b8015610a6f5780601f10610a4457610100808354040283529160200191610a6f565b820191906000526020600020905b815481529060010190602001808311610a5257829003601f168201915b50505050508152602001600182018054610a8890611039565b80601f0160208091040260200160405190810160405280929190818152602001828054610ab490611039565b8015610b015780601f10610ad657610100808354040283529160200191610b01565b820191906000526020600020905b815481529060010190602001808311610ae457829003601f168201915b50505050508152602001600282015481526020016003820160009054906101000a900473ffffffffffffffffffffffffffffffffffffffff1673ffffffffffffffffffffffffffffffffffffffff1673ffffffffffffffffffffffffffffffffffffffff1681525050815260200190600101906109c3565b50505050905090565b600080fd5b600080fd5b600073ffffffffffffffffffffffffffffffffffffffff82169050919050565b6000610bb782610b8c565b9050919050565b610bc781610bac565b8114610bd257600080fd5b50565b600081359050610be481610bbe565b92915050565b600060208284031215610c0057610bff610b82565b5b6000610c0e84828501610bd5565b91505092915050565b60008060408385031215610c2e57610c2d610b82565b5b6000610c3c85828601610bd5565b9250506020610c4d85828601610bd5565b9150509250929050565b60008115159050919050565b610c6c81610c57565b82525050565b6000602082019050610c876000830184610c63565b92915050565b600081519050919050565b600082825260208201905092915050565b6000819050602082019050919050565b600081519050919050565b600082825260208201905092915050565b60005b83811015610cf3578082015181840152602081019050610cd8565b60008484015250505050565b6000601f19601f8301169050919050565b6000610d1b82610cb9565b610d258185610cc4565b9350610d35818560208601610cd5565b610d3e81610cff565b840191505092915050565b6000819050919050565b610d5c81610d49565b82525050565b610d6b81610bac565b82525050565b60006080830160008301518482036000860152610d8e8282610d10565b91505060208301518482036020860152610da88282610d10565b9150506040830151610dbd6040860182610d53565b506060830151610dd06060860182610d62565b508091505092915050565b6000610de78383610d71565b905092915050565b6000602082019050919050565b6000610e0782610c8d565b610e118185610c98565b935083602082028501610e2385610ca9565b8060005b85811015610e5f5784840389528151610e408582610ddb565b9450610e4b83610def565b925060208a01995050600181019050610e27565b50829750879550505050505092915050565b60006020820190508181036000830152610e8b8184610dfc565b905092915050565b600080fd5b600080fd5b600080fd5b60008083601f840112610eb857610eb7610e93565b5b8235905067ffffffffffffffff811115610ed557610ed4610e98565b5b602083019150836001820283011115610ef157610ef0610e9d565b5b9250929050565b600080600080600060608688031215610f1457610f13610b82565b5b6000610f2288828901610bd5565b955050602086013567ffffffffffffffff811115610f4357610f42610b87565b5b610f4f88828901610ea2565b9450945050604086013567ffffffffffffffff811115610f7257610f71610b87565b5b610f7e88828901610ea2565b92509250509295509295909350565b600082825260208201905092915050565b7f4e6f7420617574686f72697a6564000000000000000000000000000000000000600082015250565b6000610fd4600e83610f8d565b9150610fdf82610f9e565b602082019050919050565b6000602082019050818103600083015261100381610fc7565b9050919050565b7f4e487b7100000000000000000000000000000000000000000000000000000000600052602260045260246000fd5b6000600282049050600182168061105157607f821691505b6020821081036110645761106361100a565b5b50919050565b7f4e487b7100000000000000000000000000000000000000000000000000000000600052604160045260246000fd5b60008190508160005260206000209050919050565b60006020601f8301049050919050565b600082821b905092915050565b6000600883026110fb7fffffffffffffffffffffffffffffffffffffffffffffffffffffffffffffffff826110be565b61110586836110be565b95508019841693508086168417925050509392505050565b6000819050919050565b600061114261113d61113884610d49565b61111d565b610d49565b9050919050565b6000819050919050565b61115c83611127565b61117061116882611149565b8484546110cb565b825550505050565b600090565b611185611178565b611190818484611153565b505050565b5b818110156111b4576111a960008261117d565b600181019050611196565b5050565b601f8211156111f9576111ca81611099565b6111d3846110ae565b810160208510156111e2578190505b6111f66111ee856110ae565b830182611195565b50505b505050565b600082821c905092915050565b600061121c600019846008026111fe565b1980831691505092915050565b6000611235838361120b565b9150826002028217905092915050565b61124e82610cb9565b67ffffffffffffffff8111156112675761126661106a565b5b6112718254611039565b61127c8282856111b8565b600060209050601f8311600181146112af576000841561129d578287015190505b6112a78582611229565b86555061130f565b601f1984166112bd86611099565b60005b828110156112e5578489015182556001820191506020850194506020810190506112c0565b8683101561130257848901516112fe601f89168261120b565b8355505b6001600288020188555050505b505050505050565b82818337600083830152505050565b60006113328385610f8d565b935061133f838584611317565b61134883610cff565b840190509392505050565b6000602082019050818103600083015261136e818486611326565b9050939250505056fea26469706673582212208975eebfb0c761294f8ca51012591644cbb104b683f18c2347230b4aab4a0e0464736f6c63430008140033",
  "linkReferences": {},
  "deployedLinkReferences": {}
}